{
  "contractName": "SuperDeveloper",
  "abi": [
    {
      "inputs": [
        {
          "internalType": "string",
          "name": "_name",
          "type": "string"
        },
        {
          "internalType": "string",
          "name": "_symbol",
          "type": "string"
        }
      ],
      "stateMutability": "nonpayable",
      "type": "constructor"
    },
    {
      "anonymous": false,
      "inputs": [
        {
          "indexed": true,
          "internalType": "address",
          "name": "owner",
          "type": "address"
        },
        {
          "indexed": true,
          "internalType": "address",
          "name": "approved",
          "type": "address"
        },
        {
          "indexed": true,
          "internalType": "uint256",
          "name": "tokenId",
          "type": "uint256"
        }
      ],
      "name": "Approval",
      "type": "event"
    },
    {
      "anonymous": false,
      "inputs": [
        {
          "indexed": true,
          "internalType": "address",
          "name": "owner",
          "type": "address"
        },
        {
          "indexed": true,
          "internalType": "address",
          "name": "operator",
          "type": "address"
        },
        {
          "indexed": false,
          "internalType": "bool",
          "name": "approved",
          "type": "bool"
        }
      ],
      "name": "ApprovalForAll",
      "type": "event"
    },
    {
      "anonymous": false,
      "inputs": [
        {
          "indexed": true,
          "internalType": "address",
          "name": "from",
          "type": "address"
        },
        {
          "indexed": true,
          "internalType": "address",
          "name": "to",
          "type": "address"
        },
        {
          "indexed": true,
          "internalType": "uint256",
          "name": "tokenId",
          "type": "uint256"
        }
      ],
      "name": "Transfer",
      "type": "event"
    },
    {
      "inputs": [],
      "name": "admin",
      "outputs": [
        {
          "internalType": "address",
          "name": "",
          "type": "address"
        }
      ],
      "stateMutability": "view",
      "type": "function"
    },
    {
      "inputs": [
        {
          "internalType": "address",
          "name": "to",
          "type": "address"
        },
        {
          "internalType": "uint256",
          "name": "tokenId",
          "type": "uint256"
        }
      ],
      "name": "approve",
      "outputs": [],
      "stateMutability": "nonpayable",
      "type": "function"
    },
    {
      "inputs": [
        {
          "internalType": "address",
          "name": "owner",
          "type": "address"
        }
      ],
      "name": "balanceOf",
      "outputs": [
        {
          "internalType": "uint256",
          "name": "",
          "type": "uint256"
        }
      ],
      "stateMutability": "view",
      "type": "function"
    },
    {
      "inputs": [],
      "name": "generation",
      "outputs": [
        {
          "internalType": "uint256",
          "name": "",
          "type": "uint256"
        }
      ],
      "stateMutability": "view",
      "type": "function"
    },
    {
      "inputs": [
        {
          "internalType": "uint256",
          "name": "tokenId",
          "type": "uint256"
        }
      ],
      "name": "getApproved",
      "outputs": [
        {
          "internalType": "address",
          "name": "",
          "type": "address"
        }
      ],
      "stateMutability": "view",
      "type": "function"
    },
    {
      "inputs": [
        {
          "internalType": "address",
          "name": "owner",
          "type": "address"
        },
        {
          "internalType": "address",
          "name": "operator",
          "type": "address"
        }
      ],
      "name": "isApprovedForAll",
      "outputs": [
        {
          "internalType": "bool",
          "name": "",
          "type": "bool"
        }
      ],
      "stateMutability": "view",
      "type": "function"
    },
    {
      "inputs": [],
      "name": "name",
      "outputs": [
        {
          "internalType": "string",
          "name": "",
          "type": "string"
        }
      ],
      "stateMutability": "view",
      "type": "function"
    },
    {
      "inputs": [],
      "name": "nextId",
      "outputs": [
        {
          "internalType": "uint256",
          "name": "",
          "type": "uint256"
        }
      ],
      "stateMutability": "view",
      "type": "function"
    },
    {
      "inputs": [
        {
          "internalType": "uint256",
          "name": "tokenId",
          "type": "uint256"
        }
      ],
      "name": "ownerOf",
      "outputs": [
        {
          "internalType": "address",
          "name": "",
          "type": "address"
        }
      ],
      "stateMutability": "view",
      "type": "function"
    },
    {
      "inputs": [
        {
          "internalType": "address",
          "name": "from",
          "type": "address"
        },
        {
          "internalType": "address",
          "name": "to",
          "type": "address"
        },
        {
          "internalType": "uint256",
          "name": "tokenId",
          "type": "uint256"
        }
      ],
      "name": "safeTransferFrom",
      "outputs": [],
      "stateMutability": "nonpayable",
      "type": "function"
    },
    {
      "inputs": [
        {
          "internalType": "address",
          "name": "from",
          "type": "address"
        },
        {
          "internalType": "address",
          "name": "to",
          "type": "address"
        },
        {
          "internalType": "uint256",
          "name": "tokenId",
          "type": "uint256"
        },
        {
          "internalType": "bytes",
          "name": "_data",
          "type": "bytes"
        }
      ],
      "name": "safeTransferFrom",
      "outputs": [],
      "stateMutability": "nonpayable",
      "type": "function"
    },
    {
      "inputs": [
        {
          "internalType": "address",
          "name": "operator",
          "type": "address"
        },
        {
          "internalType": "bool",
          "name": "approved",
          "type": "bool"
        }
      ],
      "name": "setApprovalForAll",
      "outputs": [],
      "stateMutability": "nonpayable",
      "type": "function"
    },
    {
      "inputs": [
        {
          "internalType": "bytes4",
          "name": "interfaceId",
          "type": "bytes4"
        }
      ],
      "name": "supportsInterface",
      "outputs": [
        {
          "internalType": "bool",
          "name": "",
          "type": "bool"
        }
      ],
      "stateMutability": "view",
      "type": "function"
    },
    {
      "inputs": [],
      "name": "symbol",
      "outputs": [
        {
          "internalType": "string",
          "name": "",
          "type": "string"
        }
      ],
      "stateMutability": "view",
      "type": "function"
    },
    {
      "inputs": [
        {
          "internalType": "uint256",
          "name": "tokenId",
          "type": "uint256"
        }
      ],
      "name": "tokenURI",
      "outputs": [
        {
          "internalType": "string",
          "name": "",
          "type": "string"
        }
      ],
      "stateMutability": "view",
      "type": "function"
    },
    {
      "inputs": [
        {
          "internalType": "address",
          "name": "from",
          "type": "address"
        },
        {
          "internalType": "address",
          "name": "to",
          "type": "address"
        },
        {
          "internalType": "uint256",
          "name": "tokenId",
          "type": "uint256"
        }
      ],
      "name": "transferFrom",
      "outputs": [],
      "stateMutability": "nonpayable",
      "type": "function"
    }
  ],
  "bytecode": "0x60806040523480156200001157600080fd5b5060405162002738380380620027388339818101604052810190620000379190620001d8565b8181816000908051906020019062000051929190620000b6565b5080600190805190602001906200006a929190620000b6565b50505033600960006101000a81548173ffffffffffffffffffffffffffffffffffffffff021916908373ffffffffffffffffffffffffffffffffffffffff16021790555050506200037c565b828054620000c490620002e8565b90600052602060002090601f016020900481019282620000e8576000855562000134565b82601f106200010357805160ff191683800117855562000134565b8280016001018555821562000134579182015b828111156200013357825182559160200191906001019062000116565b5b50905062000143919062000147565b5090565b5b808211156200016257600081600090555060010162000148565b5090565b60006200017d62000177846200027f565b6200024b565b9050828152602081018484840111156200019657600080fd5b620001a3848285620002b2565b509392505050565b600082601f830112620001bd57600080fd5b8151620001cf84826020860162000166565b91505092915050565b60008060408385031215620001ec57600080fd5b600083015167ffffffffffffffff8111156200020757600080fd5b6200021585828601620001ab565b925050602083015167ffffffffffffffff8111156200023357600080fd5b6200024185828601620001ab565b9150509250929050565b6000604051905081810181811067ffffffffffffffff821117156200027557620002746200034d565b5b8060405250919050565b600067ffffffffffffffff8211156200029d576200029c6200034d565b5b601f19601f8301169050602081019050919050565b60005b83811015620002d2578082015181840152602081019050620002b5565b83811115620002e2576000848401525b50505050565b600060028204905060018216806200030157607f821691505b602082108114156200031857620003176200031e565b5b50919050565b7f4e487b7100000000000000000000000000000000000000000000000000000000600052602260045260246000fd5b7f4e487b7100000000000000000000000000000000000000000000000000000000600052604160045260246000fd5b6123ac806200038c6000396000f3fe608060405234801561001057600080fd5b50600436106101005760003560e01c80636352211e11610097578063b88d4fde11610066578063b88d4fde146102ad578063c87b56dd146102c9578063e985e9c5146102f9578063f851a4401461032957610100565b80636352211e1461021357806370a082311461024357806395d89b4114610273578063a22cb4651461029157610100565b806317219522116100d3578063172195221461019f57806323b872dd146101bd57806342842e0e146101d957806361b8ce8c146101f557610100565b806301ffc9a71461010557806306fdde0314610135578063081812fc14610153578063095ea7b314610183575b600080fd5b61011f600480360381019061011a919061173c565b610347565b60405161012c9190611db4565b60405180910390f35b61013d610429565b60405161014a9190611dcf565b60405180910390f35b61016d6004803603810190610168919061178e565b6104bb565b60405161017a9190611d4d565b60405180910390f35b61019d60048036038101906101989190611700565b610540565b005b6101a7610658565b6040516101b49190611f71565b60405180910390f35b6101d760048036038101906101d291906115fa565b61065e565b005b6101f360048036038101906101ee91906115fa565b6106be565b005b6101fd6106de565b60405161020a9190611f71565b60405180910390f35b61022d6004803603810190610228919061178e565b6106e4565b60405161023a9190611d4d565b60405180910390f35b61025d60048036038101906102589190611595565b610796565b60405161026a9190611f71565b60405180910390f35b61027b61084e565b6040516102889190611dcf565b60405180910390f35b6102ab60048036038101906102a691906116c4565b6108e0565b005b6102c760048036038101906102c29190611649565b610a61565b005b6102e360048036038101906102de919061178e565b610ac3565b6040516102f09190611dcf565b60405180910390f35b610313600480360381019061030e91906115be565b610b6a565b6040516103209190611db4565b60405180910390f35b610331610bfe565b60405161033e9190611d4d565b60405180910390f35b60007f80ac58cd000000000000000000000000000000000000000000000000000000007bffffffffffffffffffffffffffffffffffffffffffffffffffffffff1916827bffffffffffffffffffffffffffffffffffffffffffffffffffffffff1916148061041257507f5b5e139f000000000000000000000000000000000000000000000000000000007bffffffffffffffffffffffffffffffffffffffffffffffffffffffff1916827bffffffffffffffffffffffffffffffffffffffffffffffffffffffff1916145b80610422575061042182610c24565b5b9050919050565b606060008054610438906121a1565b80601f0160208091040260200160405190810160405280929190818152602001828054610464906121a1565b80156104b15780601f10610486576101008083540402835291602001916104b1565b820191906000526020600020905b81548152906001019060200180831161049457829003601f168201915b5050505050905090565b60006104c682610c8e565b610505576040517f08c379a00000000000000000000000000000000000000000000000000000000081526004016104fc90611ed1565b60405180910390fd5b6004600083815260200190815260200160002060009054906101000a900473ffffffffffffffffffffffffffffffffffffffff169050919050565b600061054b826106e4565b90508073ffffffffffffffffffffffffffffffffffffffff168373ffffffffffffffffffffffffffffffffffffffff1614156105bc576040517f08c379a00000000000000000000000000000000000000000000000000000000081526004016105b390611f31565b60405180910390fd5b8073ffffffffffffffffffffffffffffffffffffffff166105db610cfa565b73ffffffffffffffffffffffffffffffffffffffff16148061060a575061060981610604610cfa565b610b6a565b5b610649576040517f08c379a000000000000000000000000000000000000000000000000000000000815260040161064090611e71565b60405180910390fd5b6106538383610d02565b505050565b60075481565b61066f610669610cfa565b82610dbb565b6106ae576040517f08c379a00000000000000000000000000000000000000000000000000000000081526004016106a590611f51565b60405180910390fd5b6106b9838383610e99565b505050565b6106d983838360405180602001604052806000815250610a61565b505050565b60085481565b6000806002600084815260200190815260200160002060009054906101000a900473ffffffffffffffffffffffffffffffffffffffff169050600073ffffffffffffffffffffffffffffffffffffffff168173ffffffffffffffffffffffffffffffffffffffff16141561078d576040517f08c379a000000000000000000000000000000000000000000000000000000000815260040161078490611eb1565b60405180910390fd5b80915050919050565b60008073ffffffffffffffffffffffffffffffffffffffff168273ffffffffffffffffffffffffffffffffffffffff161415610807576040517f08c379a00000000000000000000000000000000000000000000000000000000081526004016107fe90611e91565b60405180910390fd5b600360008373ffffffffffffffffffffffffffffffffffffffff1673ffffffffffffffffffffffffffffffffffffffff168152602001908152602001600020549050919050565b60606001805461085d906121a1565b80601f0160208091040260200160405190810160405280929190818152602001828054610889906121a1565b80156108d65780601f106108ab576101008083540402835291602001916108d6565b820191906000526020600020905b8154815290600101906020018083116108b957829003601f168201915b5050505050905090565b6108e8610cfa565b73ffffffffffffffffffffffffffffffffffffffff168273ffffffffffffffffffffffffffffffffffffffff161415610956576040517f08c379a000000000000000000000000000000000000000000000000000000000815260040161094d90611e31565b60405180910390fd5b8060056000610963610cfa565b73ffffffffffffffffffffffffffffffffffffffff1673ffffffffffffffffffffffffffffffffffffffff16815260200190815260200160002060008473ffffffffffffffffffffffffffffffffffffffff1673ffffffffffffffffffffffffffffffffffffffff16815260200190815260200160002060006101000a81548160ff0219169083151502179055508173ffffffffffffffffffffffffffffffffffffffff16610a10610cfa565b73ffffffffffffffffffffffffffffffffffffffff167f17307eab39ab6107e8899845ad3d59bd9653f200f220920489ca2b5937696c3183604051610a559190611db4565b60405180910390a35050565b610a72610a6c610cfa565b83610dbb565b610ab1576040517f08c379a0000000000000000000000000000000000000000000000000000000008152600401610aa890611f51565b60405180910390fd5b610abd848484846110f5565b50505050565b6060610ace82610c8e565b610b0d576040517f08c379a0000000000000000000000000000000000000000000000000000000008152600401610b0490611f11565b60405180910390fd5b6000610b17611151565b90506000815111610b375760405180602001604052806000815250610b62565b80610b4184611168565b604051602001610b52929190611d29565b6040516020818303038152906040525b915050919050565b6000600560008473ffffffffffffffffffffffffffffffffffffffff1673ffffffffffffffffffffffffffffffffffffffff16815260200190815260200160002060008373ffffffffffffffffffffffffffffffffffffffff1673ffffffffffffffffffffffffffffffffffffffff16815260200190815260200160002060009054906101000a900460ff16905092915050565b600960009054906101000a900473ffffffffffffffffffffffffffffffffffffffff1681565b60007f01ffc9a7000000000000000000000000000000000000000000000000000000007bffffffffffffffffffffffffffffffffffffffffffffffffffffffff1916827bffffffffffffffffffffffffffffffffffffffffffffffffffffffff1916149050919050565b60008073ffffffffffffffffffffffffffffffffffffffff166002600084815260200190815260200160002060009054906101000a900473ffffffffffffffffffffffffffffffffffffffff1673ffffffffffffffffffffffffffffffffffffffff1614159050919050565b600033905090565b816004600083815260200190815260200160002060006101000a81548173ffffffffffffffffffffffffffffffffffffffff021916908373ffffffffffffffffffffffffffffffffffffffff160217905550808273ffffffffffffffffffffffffffffffffffffffff16610d75836106e4565b73ffffffffffffffffffffffffffffffffffffffff167f8c5be1e5ebec7d5bd14f71427d1e84f3dd0314c0f7b2291e5b200ac8c7c3b92560405160405180910390a45050565b6000610dc682610c8e565b610e05576040517f08c379a0000000000000000000000000000000000000000000000000000000008152600401610dfc90611e51565b60405180910390fd5b6000610e10836106e4565b90508073ffffffffffffffffffffffffffffffffffffffff168473ffffffffffffffffffffffffffffffffffffffff161480610e7f57508373ffffffffffffffffffffffffffffffffffffffff16610e67846104bb565b73ffffffffffffffffffffffffffffffffffffffff16145b80610e905750610e8f8185610b6a565b5b91505092915050565b8273ffffffffffffffffffffffffffffffffffffffff16610eb9826106e4565b73ffffffffffffffffffffffffffffffffffffffff1614610f0f576040517f08c379a0000000000000000000000000000000000000000000000000000000008152600401610f0690611ef1565b60405180910390fd5b600073ffffffffffffffffffffffffffffffffffffffff168273ffffffffffffffffffffffffffffffffffffffff161415610f7f576040517f08c379a0000000000000000000000000000000000000000000000000000000008152600401610f7690611e11565b60405180910390fd5b610f8a838383611315565b610f95600082610d02565b6001600360008573ffffffffffffffffffffffffffffffffffffffff1673ffffffffffffffffffffffffffffffffffffffff1681526020019081526020016000206000828254610fe591906120b7565b925050819055506001600360008473ffffffffffffffffffffffffffffffffffffffff1673ffffffffffffffffffffffffffffffffffffffff168152602001908152602001600020600082825461103c9190612030565b92505081905550816002600083815260200190815260200160002060006101000a81548173ffffffffffffffffffffffffffffffffffffffff021916908373ffffffffffffffffffffffffffffffffffffffff160217905550808273ffffffffffffffffffffffffffffffffffffffff168473ffffffffffffffffffffffffffffffffffffffff167fddf252ad1be2c89b69c2b068fc378daa952ba7f163c4a11628f55a4df523b3ef60405160405180910390a4505050565b611100848484610e99565b61110c8484848461131a565b61114b576040517f08c379a000000000000000000000000000000000000000000000000000000000815260040161114290611df1565b60405180910390fd5b50505050565b606060405180602001604052806000815250905090565b606060008214156111b0576040518060400160405280600181526020017f30000000000000000000000000000000000000000000000000000000000000008152509050611310565b600082905060005b600082146111e25780806111cb906121d3565b915050600a826111db9190612086565b91506111b8565b60008167ffffffffffffffff811115611224577f4e487b7100000000000000000000000000000000000000000000000000000000600052604160045260246000fd5b6040519080825280601f01601f1916602001820160405280156112565781602001600182028036833780820191505090505b5090505b600085146113095760018261126f91906120b7565b9150600a8561127e919061221c565b603061128a9190612030565b60f81b8183815181106112c6577f4e487b7100000000000000000000000000000000000000000000000000000000600052603260045260246000fd5b60200101907effffffffffffffffffffffffffffffffffffffffffffffffffffffffffffff1916908160001a905350600a856113029190612086565b945061125a565b8093505050505b919050565b505050565b600061133b8473ffffffffffffffffffffffffffffffffffffffff166114b1565b156114a4578373ffffffffffffffffffffffffffffffffffffffff1663150b7a02611364610cfa565b8786866040518563ffffffff1660e01b81526004016113869493929190611d68565b602060405180830381600087803b1580156113a057600080fd5b505af19250505080156113d157506040513d601f19601f820116820180604052508101906113ce9190611765565b60015b611454573d8060008114611401576040519150601f19603f3d011682016040523d82523d6000602084013e611406565b606091505b5060008151141561144c576040517f08c379a000000000000000000000000000000000000000000000000000000000815260040161144390611df1565b60405180910390fd5b805181602001fd5b63150b7a0260e01b7bffffffffffffffffffffffffffffffffffffffffffffffffffffffff1916817bffffffffffffffffffffffffffffffffffffffffffffffffffffffff1916149150506114a9565b600190505b949350505050565b600080823b905060008111915050919050565b60006114d76114d284611fbd565b611f8c565b9050828152602081018484840111156114ef57600080fd5b6114fa84828561215f565b509392505050565b6000813590506115118161231a565b92915050565b60008135905061152681612331565b92915050565b60008135905061153b81612348565b92915050565b60008151905061155081612348565b92915050565b600082601f83011261156757600080fd5b81356115778482602086016114c4565b91505092915050565b60008135905061158f8161235f565b92915050565b6000602082840312156115a757600080fd5b60006115b584828501611502565b91505092915050565b600080604083850312156115d157600080fd5b60006115df85828601611502565b92505060206115f085828601611502565b9150509250929050565b60008060006060848603121561160f57600080fd5b600061161d86828701611502565b935050602061162e86828701611502565b925050604061163f86828701611580565b9150509250925092565b6000806000806080858703121561165f57600080fd5b600061166d87828801611502565b945050602061167e87828801611502565b935050604061168f87828801611580565b925050606085013567ffffffffffffffff8111156116ac57600080fd5b6116b887828801611556565b91505092959194509250565b600080604083850312156116d757600080fd5b60006116e585828601611502565b92505060206116f685828601611517565b9150509250929050565b6000806040838503121561171357600080fd5b600061172185828601611502565b925050602061173285828601611580565b9150509250929050565b60006020828403121561174e57600080fd5b600061175c8482850161152c565b91505092915050565b60006020828403121561177757600080fd5b600061178584828501611541565b91505092915050565b6000602082840312156117a057600080fd5b60006117ae84828501611580565b91505092915050565b6117c0816120eb565b82525050565b6117cf816120fd565b82525050565b60006117e082611fed565b6117ea8185612003565b93506117fa81856020860161216e565b61180381612309565b840191505092915050565b600061181982611ff8565b6118238185612014565b935061183381856020860161216e565b61183c81612309565b840191505092915050565b600061185282611ff8565b61185c8185612025565b935061186c81856020860161216e565b80840191505092915050565b6000611885603283612014565b91507f4552433732313a207472616e7366657220746f206e6f6e20455243373231526560008301527f63656976657220696d706c656d656e74657200000000000000000000000000006020830152604082019050919050565b60006118eb602483612014565b91507f4552433732313a207472616e7366657220746f20746865207a65726f2061646460008301527f72657373000000000000000000000000000000000000000000000000000000006020830152604082019050919050565b6000611951601983612014565b91507f4552433732313a20617070726f766520746f2063616c6c6572000000000000006000830152602082019050919050565b6000611991602c83612014565b91507f4552433732313a206f70657261746f7220717565727920666f72206e6f6e657860008301527f697374656e7420746f6b656e00000000000000000000000000000000000000006020830152604082019050919050565b60006119f7603883612014565b91507f4552433732313a20617070726f76652063616c6c6572206973206e6f74206f7760008301527f6e6572206e6f7220617070726f76656420666f7220616c6c00000000000000006020830152604082019050919050565b6000611a5d602a83612014565b91507f4552433732313a2062616c616e636520717565727920666f7220746865207a6560008301527f726f2061646472657373000000000000000000000000000000000000000000006020830152604082019050919050565b6000611ac3602983612014565b91507f4552433732313a206f776e657220717565727920666f72206e6f6e657869737460008301527f656e7420746f6b656e00000000000000000000000000000000000000000000006020830152604082019050919050565b6000611b29602c83612014565b91507f4552433732313a20617070726f76656420717565727920666f72206e6f6e657860008301527f697374656e7420746f6b656e00000000000000000000000000000000000000006020830152604082019050919050565b6000611b8f602983612014565b91507f4552433732313a207472616e73666572206f6620746f6b656e2074686174206960008301527f73206e6f74206f776e00000000000000000000000000000000000000000000006020830152604082019050919050565b6000611bf5602f83612014565b91507f4552433732314d657461646174613a2055524920717565727920666f72206e6f60008301527f6e6578697374656e7420746f6b656e00000000000000000000000000000000006020830152604082019050919050565b6000611c5b602183612014565b91507f4552433732313a20617070726f76616c20746f2063757272656e74206f776e6560008301527f72000000000000000000000000000000000000000000000000000000000000006020830152604082019050919050565b6000611cc1603183612014565b91507f4552433732313a207472616e736665722063616c6c6572206973206e6f74206f60008301527f776e6572206e6f7220617070726f7665640000000000000000000000000000006020830152604082019050919050565b611d2381612155565b82525050565b6000611d358285611847565b9150611d418284611847565b91508190509392505050565b6000602082019050611d6260008301846117b7565b92915050565b6000608082019050611d7d60008301876117b7565b611d8a60208301866117b7565b611d976040830185611d1a565b8181036060830152611da981846117d5565b905095945050505050565b6000602082019050611dc960008301846117c6565b92915050565b60006020820190508181036000830152611de9818461180e565b905092915050565b60006020820190508181036000830152611e0a81611878565b9050919050565b60006020820190508181036000830152611e2a816118de565b9050919050565b60006020820190508181036000830152611e4a81611944565b9050919050565b60006020820190508181036000830152611e6a81611984565b9050919050565b60006020820190508181036000830152611e8a816119ea565b9050919050565b60006020820190508181036000830152611eaa81611a50565b9050919050565b60006020820190508181036000830152611eca81611ab6565b9050919050565b60006020820190508181036000830152611eea81611b1c565b9050919050565b60006020820190508181036000830152611f0a81611b82565b9050919050565b60006020820190508181036000830152611f2a81611be8565b9050919050565b60006020820190508181036000830152611f4a81611c4e565b9050919050565b60006020820190508181036000830152611f6a81611cb4565b9050919050565b6000602082019050611f866000830184611d1a565b92915050565b6000604051905081810181811067ffffffffffffffff82111715611fb357611fb26122da565b5b8060405250919050565b600067ffffffffffffffff821115611fd857611fd76122da565b5b601f19601f8301169050602081019050919050565b600081519050919050565b600081519050919050565b600082825260208201905092915050565b600082825260208201905092915050565b600081905092915050565b600061203b82612155565b915061204683612155565b9250827fffffffffffffffffffffffffffffffffffffffffffffffffffffffffffffffff0382111561207b5761207a61224d565b5b828201905092915050565b600061209182612155565b915061209c83612155565b9250826120ac576120ab61227c565b5b828204905092915050565b60006120c282612155565b91506120cd83612155565b9250828210156120e0576120df61224d565b5b828203905092915050565b60006120f682612135565b9050919050565b60008115159050919050565b60007fffffffff0000000000000000000000000000000000000000000000000000000082169050919050565b600073ffffffffffffffffffffffffffffffffffffffff82169050919050565b6000819050919050565b82818337600083830152505050565b60005b8381101561218c578082015181840152602081019050612171565b8381111561219b576000848401525b50505050565b600060028204905060018216806121b957607f821691505b602082108114156121cd576121cc6122ab565b5b50919050565b60006121de82612155565b91507fffffffffffffffffffffffffffffffffffffffffffffffffffffffffffffffff8214156122115761221061224d565b5b600182019050919050565b600061222782612155565b915061223283612155565b9250826122425761224161227c565b5b828206905092915050565b7f4e487b7100000000000000000000000000000000000000000000000000000000600052601160045260246000fd5b7f4e487b7100000000000000000000000000000000000000000000000000000000600052601260045260246000fd5b7f4e487b7100000000000000000000000000000000000000000000000000000000600052602260045260246000fd5b7f4e487b7100000000000000000000000000000000000000000000000000000000600052604160045260246000fd5b6000601f19601f8301169050919050565b612323816120eb565b811461232e57600080fd5b50565b61233a816120fd565b811461234557600080fd5b50565b61235181612109565b811461235c57600080fd5b50565b61236881612155565b811461237357600080fd5b5056fea2646970667358221220e133c581095416c2c83077f5644455ed58da1d5edc64484641e187809197329f64736f6c63430008000033",
  "immutableReferences": {},
  "source": "pragma solidity ^0.8.0;\n\nimport \"@openzeppelin/contracts/token/ERC721/ERC721.sol\";\nimport \"./ETBToken.sol\";\n\ncontract SuperDeveloper is ERC721 {\n\n    struct Developer {\n        uint256 id;\n        uint256 userId;\n        uint256 eTBHoldings;\n        uint256 generation;\n        uint256 skillA;\n        uint256 skillB;\n    }\n\n    mapping(uint256 => Developer) private developers;\n    //mapping(uint256 => Developer) private developer1;\n    //mapping(uint256 => Developer) private developer2;\n    uint256 public generation;\n    uint256 public nextId;\n    address public admin;\n\n    constructor(string memory _name,\n        string memory _symbol) ERC721(_name, _symbol) {\n            admin = msg.sender;    \n        }\n\n\n}",
  "sourcePath": "/home/lilica/Documents/ETBNFTChallenge/contracts/SuperDeveloper.sol",
  "compiler": {
    "name": "solc",
    "version": "0.8.0+commit.c7dfd78e.Emscripten.clang"
  },
  "schemaVersion": "3.4.3",
  "updatedAt": "2021-10-17T01:30:01.031Z",
  "devdoc": {
    "kind": "dev",
    "methods": {
      "approve(address,uint256)": {
        "details": "See {IERC721-approve}."
      },
      "balanceOf(address)": {
        "details": "See {IERC721-balanceOf}."
      },
      "getApproved(uint256)": {
        "details": "See {IERC721-getApproved}."
      },
      "isApprovedForAll(address,address)": {
        "details": "See {IERC721-isApprovedForAll}."
      },
      "name()": {
        "details": "See {IERC721Metadata-name}."
      },
      "ownerOf(uint256)": {
        "details": "See {IERC721-ownerOf}."
      },
      "safeTransferFrom(address,address,uint256)": {
        "details": "See {IERC721-safeTransferFrom}."
      },
      "safeTransferFrom(address,address,uint256,bytes)": {
        "details": "See {IERC721-safeTransferFrom}."
      },
      "setApprovalForAll(address,bool)": {
        "details": "See {IERC721-setApprovalForAll}."
      },
      "supportsInterface(bytes4)": {
        "details": "See {IERC165-supportsInterface}."
      },
      "symbol()": {
        "details": "See {IERC721Metadata-symbol}."
      },
      "tokenURI(uint256)": {
        "details": "See {IERC721Metadata-tokenURI}."
      },
      "transferFrom(address,address,uint256)": {
        "details": "See {IERC721-transferFrom}."
      }
    },
    "version": 1
  },
  "userdoc": {
    "kind": "user",
    "methods": {},
    "version": 1
  }
}